{"contracts/Tasks.sol":{"Tasks":{"abi":[{"anonymous":false,"inputs":[{"indexed":true,"internalType":"uint256","name":"id","type":"uint256"}],"name":"TaskCompleted","type":"event"},{"anonymous":false,"inputs":[{"indexed":true,"internalType":"uint256","name":"id","type":"uint256"},{"indexed":false,"internalType":"string","name":"name","type":"string"},{"indexed":false,"internalType":"string","name":"description","type":"string"},{"indexed":false,"internalType":"uint256","name":"dueDate","type":"uint256"}],"name":"TaskCreated","type":"event"},{"anonymous":false,"inputs":[{"indexed":true,"internalType":"uint256","name":"id","type":"uint256"}],"name":"TaskDeleted","type":"event"},{"inputs":[{"internalType":"uint256","name":"id","type":"uint256"}],"name":"completeTask","outputs":[],"stateMutability":"nonpayable","type":"function"},{"inputs":[{"internalType":"string","name":"name","type":"string"},{"internalType":"string","name":"description","type":"string"},{"internalType":"uint256","name":"dueDate","type":"uint256"}],"name":"createTask","outputs":[],"stateMutability":"nonpayable","type":"function"},{"inputs":[{"internalType":"uint256","name":"id","type":"uint256"}],"name":"deleteTask","outputs":[],"stateMutability":"nonpayable","type":"function"},{"inputs":[{"internalType":"uint256","name":"id","type":"uint256"}],"name":"getTask","outputs":[{"components":[{"internalType":"uint256","name":"id","type":"uint256"},{"internalType":"string","name":"name","type":"string"},{"internalType":"string","name":"description","type":"string"},{"internalType":"uint256","name":"dueDate","type":"uint256"},{"internalType":"bool","name":"completed","type":"bool"}],"internalType":"struct Tasks.Task","name":"","type":"tuple"}],"stateMutability":"view","type":"function"},{"inputs":[],"name":"getTasks","outputs":[{"components":[{"internalType":"uint256","name":"id","type":"uint256"},{"internalType":"string","name":"name","type":"string"},{"internalType":"string","name":"description","type":"string"},{"internalType":"uint256","name":"dueDate","type":"uint256"},{"internalType":"bool","name":"completed","type":"bool"}],"internalType":"struct Tasks.Task[]","name":"","type":"tuple[]"}],"stateMutability":"view","type":"function"}],"evm":{"bytecode":{"linkReferences":{},"object":"608060405234801561001057600080fd5b50611114806100206000396000f3fe608060405234801561001057600080fd5b50600436106100575760003560e01c806304a87e381461005c5780631d65e77e1461007a57806341a4e30a146100aa578063560f3192146100c6578063e1e29558146100e2575b600080fd5b6100646100fe565b60405161007191906109fc565b60405180910390f35b610094600480360381019061008f9190610a54565b610314565b6040516100a19190610afe565b60405180910390f35b6100c460048036038101906100bf9190610b85565b610494565b005b6100e060048036038101906100db9190610a54565b61061f565b005b6100fc60048036038101906100f79190610a54565b6106a9565b005b606060008054905060008167ffffffffffffffff81111561012257610121610c1a565b5b60405190808252806020026020018201604052801561015b57816020015b61014861076b565b8152602001906001900390816101405790505b50905060005b8281101561030b57600160008281526020019081526020016000206040518060a0016040529081600082015481526020016001820180546101a190610c78565b80601f01602080910402602001604051908101604052809291908181526020018280546101cd90610c78565b801561021a5780601f106101ef5761010080835404028352916020019161021a565b820191906000526020600020905b8154815290600101906020018083116101fd57829003601f168201915b5050505050815260200160028201805461023390610c78565b80601f016020809104026020016040519081016040528092919081815260200182805461025f90610c78565b80156102ac5780601f10610281576101008083540402835291602001916102ac565b820191906000526020600020905b81548152906001019060200180831161028f57829003601f168201915b50505050508152602001600382015481526020016004820160009054906101000a900460ff1615151515815250508282815181106102ed576102ec610ca9565b5b6020026020010181905250808061030390610d07565b915050610161565b50809250505090565b61031c61076b565b600160008381526020019081526020016000206040518060a00160405290816000820154815260200160018201805461035490610c78565b80601f016020809104026020016040519081016040528092919081815260200182805461038090610c78565b80156103cd5780601f106103a2576101008083540402835291602001916103cd565b820191906000526020600020905b8154815290600101906020018083116103b057829003601f168201915b505050505081526020016002820180546103e690610c78565b80601f016020809104026020016040519081016040528092919081815260200182805461041290610c78565b801561045f5780601f106104345761010080835404028352916020019161045f565b820191906000526020600020905b81548152906001019060200180831161044257829003601f168201915b50505050508152602001600382015481526020016004820160009054906101000a900460ff1615151515815250509050919050565b6040518060a00160405280600054815260200186868080601f016020809104026020016040519081016040528093929190818152602001838380828437600081840152601f19601f82011690508083019250505050505050815260200184848080601f016020809104026020016040519081016040528093929190818152602001838380828437600081840152601f19601f82011690508083019250505050505050815260200182815260200160001515815250600160008054815260200190815260200160002060008201518160000155602082015181600101908161057b9190610efb565b5060408201518160020190816105919190610efb565b506060820151816003015560808201518160040160006101000a81548160ff0219169083151502179055509050506000547f94b062fb0d134e6f12cda4c62e9aac9e2da3e5ce4d9ac4d7f6ca761cd7b8801a86868686866040516105f9959493929190611029565b60405180910390a260008081548092919061061390610d07565b91905055505050505050565b6001600082815260200190815260200160002060008082016000905560018201600061064b919061079c565b60028201600061065b919061079c565b60038201600090556004820160006101000a81549060ff02191690555050807fd078b251d950cc55c44340be1db732337ef4939a76e1367ee271ad2cb19c46af60405160405180910390a250565b6001600082815260200190815260200160002060040160009054906101000a900460ff161561070d576040517f08c379a0000000000000000000000000000000000000000000000000000000008152600401610704906110be565b60405180910390fd5b600180600083815260200190815260200160002060040160006101000a81548160ff021916908315150217905550807fc1fa7142cfb933d0855114a3bffde296944c30b727f297c14d0db4d553d3a5c760405160405180910390a250565b6040518060a00160405280600081526020016060815260200160608152602001600081526020016000151581525090565b5080546107a890610c78565b6000825580601f106107ba57506107d9565b601f0160209004906000526020600020908101906107d891906107dc565b5b50565b5b808211156107f55760008160009055506001016107dd565b5090565b600081519050919050565b600082825260208201905092915050565b6000819050602082019050919050565b6000819050919050565b61083881610825565b82525050565b600081519050919050565b600082825260208201905092915050565b60005b8381101561087857808201518184015260208101905061085d565b60008484015250505050565b6000601f19601f8301169050919050565b60006108a08261083e565b6108aa8185610849565b93506108ba81856020860161085a565b6108c381610884565b840191505092915050565b60008115159050919050565b6108e3816108ce565b82525050565b600060a083016000830151610901600086018261082f565b50602083015184820360208601526109198282610895565b915050604083015184820360408601526109338282610895565b9150506060830151610948606086018261082f565b50608083015161095b60808601826108da565b508091505092915050565b600061097283836108e9565b905092915050565b6000602082019050919050565b6000610992826107f9565b61099c8185610804565b9350836020820285016109ae85610815565b8060005b858110156109ea57848403895281516109cb8582610966565b94506109d68361097a565b925060208a019950506001810190506109b2565b50829750879550505050505092915050565b60006020820190508181036000830152610a168184610987565b905092915050565b600080fd5b600080fd5b610a3181610825565b8114610a3c57600080fd5b50565b600081359050610a4e81610a28565b92915050565b600060208284031215610a6a57610a69610a1e565b5b6000610a7884828501610a3f565b91505092915050565b600060a083016000830151610a99600086018261082f565b5060208301518482036020860152610ab18282610895565b91505060408301518482036040860152610acb8282610895565b9150506060830151610ae0606086018261082f565b506080830151610af360808601826108da565b508091505092915050565b60006020820190508181036000830152610b188184610a81565b905092915050565b600080fd5b600080fd5b600080fd5b60008083601f840112610b4557610b44610b20565b5b8235905067ffffffffffffffff811115610b6257610b61610b25565b5b602083019150836001820283011115610b7e57610b7d610b2a565b5b9250929050565b600080600080600060608688031215610ba157610ba0610a1e565b5b600086013567ffffffffffffffff811115610bbf57610bbe610a23565b5b610bcb88828901610b2f565b9550955050602086013567ffffffffffffffff811115610bee57610bed610a23565b5b610bfa88828901610b2f565b93509350506040610c0d88828901610a3f565b9150509295509295909350565b7f4e487b7100000000000000000000000000000000000000000000000000000000600052604160045260246000fd5b7f4e487b7100000000000000000000000000000000000000000000000000000000600052602260045260246000fd5b60006002820490506001821680610c9057607f821691505b602082108103610ca357610ca2610c49565b5b50919050565b7f4e487b7100000000000000000000000000000000000000000000000000000000600052603260045260246000fd5b7f4e487b7100000000000000000000000000000000000000000000000000000000600052601160045260246000fd5b6000610d1282610825565b91507fffffffffffffffffffffffffffffffffffffffffffffffffffffffffffffffff8203610d4457610d43610cd8565b5b600182019050919050565b60008190508160005260206000209050919050565b60006020601f8301049050919050565b600082821b905092915050565b600060088302610db17fffffffffffffffffffffffffffffffffffffffffffffffffffffffffffffffff82610d74565b610dbb8683610d74565b95508019841693508086168417925050509392505050565b6000819050919050565b6000610df8610df3610dee84610825565b610dd3565b610825565b9050919050565b6000819050919050565b610e1283610ddd565b610e26610e1e82610dff565b848454610d81565b825550505050565b600090565b610e3b610e2e565b610e46818484610e09565b505050565b5b81811015610e6a57610e5f600082610e33565b600181019050610e4c565b5050565b601f821115610eaf57610e8081610d4f565b610e8984610d64565b81016020851015610e98578190505b610eac610ea485610d64565b830182610e4b565b50505b505050565b600082821c905092915050565b6000610ed260001984600802610eb4565b1980831691505092915050565b6000610eeb8383610ec1565b9150826002028217905092915050565b610f048261083e565b67ffffffffffffffff811115610f1d57610f1c610c1a565b5b610f278254610c78565b610f32828285610e6e565b600060209050601f831160018114610f655760008415610f53578287015190505b610f5d8582610edf565b865550610fc5565b601f198416610f7386610d4f565b60005b82811015610f9b57848901518255600182019150602085019450602081019050610f76565b86831015610fb85784890151610fb4601f891682610ec1565b8355505b6001600288020188555050505b505050505050565b600082825260208201905092915050565b82818337600083830152505050565b6000610ff98385610fcd565b9350611006838584610fde565b61100f83610884565b840190509392505050565b61102381610825565b82525050565b60006060820190508181036000830152611044818789610fed565b90508181036020830152611059818587610fed565b9050611068604083018461101a565b9695505050505050565b7f5461736b20697320616c726561647920636f6d706c6574656400000000000000600082015250565b60006110a8601983610fcd565b91506110b382611072565b602082019050919050565b600060208201905081810360008301526110d78161109b565b905091905056fea2646970667358221220eec692ef286e1e4b3749620b6ed2cb808ac36f8fa4ae05ae4a7174adacdddcff64736f6c63430008120033","opcodes":"PUSH1 0x80 PUSH1 0x40 MSTORE CALLVALUE DUP1 ISZERO PUSH2 0x10 JUMPI PUSH1 0x0 DUP1 REVERT JUMPDEST POP PUSH2 0x1114 DUP1 PUSH2 0x20 PUSH1 0x0 CODECOPY PUSH1 0x0 RETURN INVALID PUSH1 0x80 PUSH1 0x40 MSTORE CALLVALUE DUP1 ISZERO PUSH2 0x10 JUMPI PUSH1 0x0 DUP1 REVERT JUMPDEST POP PUSH1 0x4 CALLDATASIZE LT PUSH2 0x57 JUMPI PUSH1 0x0 CALLDATALOAD PUSH1 0xE0 SHR DUP1 PUSH4 0x4A87E38 EQ PUSH2 0x5C JUMPI DUP1 PUSH4 0x1D65E77E EQ PUSH2 0x7A JUMPI DUP1 PUSH4 0x41A4E30A EQ PUSH2 0xAA JUMPI DUP1 PUSH4 0x560F3192 EQ PUSH2 0xC6 JUMPI DUP1 PUSH4 0xE1E29558 EQ PUSH2 0xE2 JUMPI JUMPDEST PUSH1 0x0 DUP1 REVERT JUMPDEST PUSH2 0x64 PUSH2 0xFE JUMP JUMPDEST PUSH1 0x40 MLOAD PUSH2 0x71 SWAP2 SWAP1 PUSH2 0x9FC JUMP JUMPDEST PUSH1 0x40 MLOAD DUP1 SWAP2 SUB SWAP1 RETURN JUMPDEST PUSH2 0x94 PUSH1 0x4 DUP1 CALLDATASIZE SUB DUP2 ADD SWAP1 PUSH2 0x8F SWAP2 SWAP1 PUSH2 0xA54 JUMP JUMPDEST PUSH2 0x314 JUMP JUMPDEST PUSH1 0x40 MLOAD PUSH2 0xA1 SWAP2 SWAP1 PUSH2 0xAFE JUMP JUMPDEST PUSH1 0x40 MLOAD DUP1 SWAP2 SUB SWAP1 RETURN JUMPDEST PUSH2 0xC4 PUSH1 0x4 DUP1 CALLDATASIZE SUB DUP2 ADD SWAP1 PUSH2 0xBF SWAP2 SWAP1 PUSH2 0xB85 JUMP JUMPDEST PUSH2 0x494 JUMP JUMPDEST STOP JUMPDEST PUSH2 0xE0 PUSH1 0x4 DUP1 CALLDATASIZE SUB DUP2 ADD SWAP1 PUSH2 0xDB SWAP2 SWAP1 PUSH2 0xA54 JUMP JUMPDEST PUSH2 0x61F JUMP JUMPDEST STOP JUMPDEST PUSH2 0xFC PUSH1 0x4 DUP1 CALLDATASIZE SUB DUP2 ADD SWAP1 PUSH2 0xF7 SWAP2 SWAP1 PUSH2 0xA54 JUMP JUMPDEST PUSH2 0x6A9 JUMP JUMPDEST STOP JUMPDEST PUSH1 0x60 PUSH1 0x0 DUP1 SLOAD SWAP1 POP PUSH1 0x0 DUP2 PUSH8 0xFFFFFFFFFFFFFFFF DUP2 GT ISZERO PUSH2 0x122 JUMPI PUSH2 0x121 PUSH2 0xC1A JUMP JUMPDEST JUMPDEST PUSH1 0x40 MLOAD SWAP1 DUP1 DUP3 MSTORE DUP1 PUSH1 0x20 MUL PUSH1 0x20 ADD DUP3 ADD PUSH1 0x40 MSTORE DUP1 ISZERO PUSH2 0x15B JUMPI DUP2 PUSH1 0x20 ADD JUMPDEST PUSH2 0x148 PUSH2 0x76B JUMP JUMPDEST DUP2 MSTORE PUSH1 0x20 ADD SWAP1 PUSH1 0x1 SWAP1 SUB SWAP1 DUP2 PUSH2 0x140 JUMPI SWAP1 POP JUMPDEST POP SWAP1 POP PUSH1 0x0 JUMPDEST DUP3 DUP2 LT ISZERO PUSH2 0x30B JUMPI PUSH1 0x1 PUSH1 0x0 DUP3 DUP2 MSTORE PUSH1 0x20 ADD SWAP1 DUP2 MSTORE PUSH1 0x20 ADD PUSH1 0x0 KECCAK256 PUSH1 0x40 MLOAD DUP1 PUSH1 0xA0 ADD PUSH1 0x40 MSTORE SWAP1 DUP2 PUSH1 0x0 DUP3 ADD SLOAD DUP2 MSTORE PUSH1 0x20 ADD PUSH1 0x1 DUP3 ADD DUP1 SLOAD PUSH2 0x1A1 SWAP1 PUSH2 0xC78 JUMP JUMPDEST DUP1 PUSH1 0x1F ADD PUSH1 0x20 DUP1 SWAP2 DIV MUL PUSH1 0x20 ADD PUSH1 0x40 MLOAD SWAP1 DUP2 ADD PUSH1 0x40 MSTORE DUP1 SWAP3 SWAP2 SWAP1 DUP2 DUP2 MSTORE PUSH1 0x20 ADD DUP3 DUP1 SLOAD PUSH2 0x1CD SWAP1 PUSH2 0xC78 JUMP JUMPDEST DUP1 ISZERO PUSH2 0x21A JUMPI DUP1 PUSH1 0x1F LT PUSH2 0x1EF JUMPI PUSH2 0x100 DUP1 DUP4 SLOAD DIV MUL DUP4 MSTORE SWAP2 PUSH1 0x20 ADD SWAP2 PUSH2 0x21A JUMP JUMPDEST DUP3 ADD SWAP2 SWAP1 PUSH1 0x0 MSTORE PUSH1 0x20 PUSH1 0x0 KECCAK256 SWAP1 JUMPDEST DUP2 SLOAD DUP2 MSTORE SWAP1 PUSH1 0x1 ADD SWAP1 PUSH1 0x20 ADD DUP1 DUP4 GT PUSH2 0x1FD JUMPI DUP3 SWAP1 SUB PUSH1 0x1F AND DUP3 ADD SWAP2 JUMPDEST POP POP POP POP POP DUP2 MSTORE PUSH1 0x20 ADD PUSH1 0x2 DUP3 ADD DUP1 SLOAD PUSH2 0x233 SWAP1 PUSH2 0xC78 JUMP JUMPDEST DUP1 PUSH1 0x1F ADD PUSH1 0x20 DUP1 SWAP2 DIV MUL PUSH1 0x20 ADD PUSH1 0x40 MLOAD SWAP1 DUP2 ADD PUSH1 0x40 MSTORE DUP1 SWAP3 SWAP2 SWAP1 DUP2 DUP2 MSTORE PUSH1 0x20 ADD DUP3 DUP1 SLOAD PUSH2 0x25F SWAP1 PUSH2 0xC78 JUMP JUMPDEST DUP1 ISZERO PUSH2 0x2AC JUMPI DUP1 PUSH1 0x1F LT PUSH2 0x281 JUMPI PUSH2 0x100 DUP1 DUP4 SLOAD DIV MUL DUP4 MSTORE SWAP2 PUSH1 0x20 ADD SWAP2 PUSH2 0x2AC JUMP JUMPDEST DUP3 ADD SWAP2 SWAP1 PUSH1 0x0 MSTORE PUSH1 0x20 PUSH1 0x0 KECCAK256 SWAP1 JUMPDEST DUP2 SLOAD DUP2 MSTORE SWAP1 PUSH1 0x1 ADD SWAP1 PUSH1 0x20 ADD DUP1 DUP4 GT PUSH2 0x28F JUMPI DUP3 SWAP1 SUB PUSH1 0x1F AND DUP3 ADD SWAP2 JUMPDEST POP POP POP POP POP DUP2 MSTORE PUSH1 0x20 ADD PUSH1 0x3 DUP3 ADD SLOAD DUP2 MSTORE PUSH1 0x20 ADD PUSH1 0x4 DUP3 ADD PUSH1 0x0 SWAP1 SLOAD SWAP1 PUSH2 0x100 EXP SWAP1 DIV PUSH1 0xFF AND ISZERO ISZERO ISZERO ISZERO DUP2 MSTORE POP POP DUP3 DUP3 DUP2 MLOAD DUP2 LT PUSH2 0x2ED JUMPI PUSH2 0x2EC PUSH2 0xCA9 JUMP JUMPDEST JUMPDEST PUSH1 0x20 MUL PUSH1 0x20 ADD ADD DUP2 SWAP1 MSTORE POP DUP1 DUP1 PUSH2 0x303 SWAP1 PUSH2 0xD07 JUMP JUMPDEST SWAP2 POP POP PUSH2 0x161 JUMP JUMPDEST POP DUP1 SWAP3 POP POP POP SWAP1 JUMP JUMPDEST PUSH2 0x31C PUSH2 0x76B JUMP JUMPDEST PUSH1 0x1 PUSH1 0x0 DUP4 DUP2 MSTORE PUSH1 0x20 ADD SWAP1 DUP2 MSTORE PUSH1 0x20 ADD PUSH1 0x0 KECCAK256 PUSH1 0x40 MLOAD DUP1 PUSH1 0xA0 ADD PUSH1 0x40 MSTORE SWAP1 DUP2 PUSH1 0x0 DUP3 ADD SLOAD DUP2 MSTORE PUSH1 0x20 ADD PUSH1 0x1 DUP3 ADD DUP1 SLOAD PUSH2 0x354 SWAP1 PUSH2 0xC78 JUMP JUMPDEST DUP1 PUSH1 0x1F ADD PUSH1 0x20 DUP1 SWAP2 DIV MUL PUSH1 0x20 ADD PUSH1 0x40 MLOAD SWAP1 DUP2 ADD PUSH1 0x40 MSTORE DUP1 SWAP3 SWAP2 SWAP1 DUP2 DUP2 MSTORE PUSH1 0x20 ADD DUP3 DUP1 SLOAD PUSH2 0x380 SWAP1 PUSH2 0xC78 JUMP JUMPDEST DUP1 ISZERO PUSH2 0x3CD JUMPI DUP1 PUSH1 0x1F LT PUSH2 0x3A2 JUMPI PUSH2 0x100 DUP1 DUP4 SLOAD DIV MUL DUP4 MSTORE SWAP2 PUSH1 0x20 ADD SWAP2 PUSH2 0x3CD JUMP JUMPDEST DUP3 ADD SWAP2 SWAP1 PUSH1 0x0 MSTORE PUSH1 0x20 PUSH1 0x0 KECCAK256 SWAP1 JUMPDEST DUP2 SLOAD DUP2 MSTORE SWAP1 PUSH1 0x1 ADD SWAP1 PUSH1 0x20 ADD DUP1 DUP4 GT PUSH2 0x3B0 JUMPI DUP3 SWAP1 SUB PUSH1 0x1F AND DUP3 ADD SWAP2 JUMPDEST POP POP POP POP POP DUP2 MSTORE PUSH1 0x20 ADD PUSH1 0x2 DUP3 ADD DUP1 SLOAD PUSH2 0x3E6 SWAP1 PUSH2 0xC78 JUMP JUMPDEST DUP1 PUSH1 0x1F ADD PUSH1 0x20 DUP1 SWAP2 DIV MUL PUSH1 0x20 ADD PUSH1 0x40 MLOAD SWAP1 DUP2 ADD PUSH1 0x40 MSTORE DUP1 SWAP3 SWAP2 SWAP1 DUP2 DUP2 MSTORE PUSH1 0x20 ADD DUP3 DUP1 SLOAD PUSH2 0x412 SWAP1 PUSH2 0xC78 JUMP JUMPDEST DUP1 ISZERO PUSH2 0x45F JUMPI DUP1 PUSH1 0x1F LT PUSH2 0x434 JUMPI PUSH2 0x100 DUP1 DUP4 SLOAD DIV MUL DUP4 MSTORE SWAP2 PUSH1 0x20 ADD SWAP2 PUSH2 0x45F JUMP JUMPDEST DUP3 ADD SWAP2 SWAP1 PUSH1 0x0 MSTORE PUSH1 0x20 PUSH1 0x0 KECCAK256 SWAP1 JUMPDEST DUP2 SLOAD DUP2 MSTORE SWAP1 PUSH1 0x1 ADD SWAP1 PUSH1 0x20 ADD DUP1 DUP4 GT PUSH2 0x442 JUMPI DUP3 SWAP1 SUB PUSH1 0x1F AND DUP3 ADD SWAP2 JUMPDEST POP POP POP POP POP DUP2 MSTORE PUSH1 0x20 ADD PUSH1 0x3 DUP3 ADD SLOAD DUP2 MSTORE PUSH1 0x20 ADD PUSH1 0x4 DUP3 ADD PUSH1 0x0 SWAP1 SLOAD SWAP1 PUSH2 0x100 EXP SWAP1 DIV PUSH1 0xFF AND ISZERO ISZERO ISZERO ISZERO DUP2 MSTORE POP POP SWAP1 POP SWAP2 SWAP1 POP JUMP JUMPDEST PUSH1 0x40 MLOAD DUP1 PUSH1 0xA0 ADD PUSH1 0x40 MSTORE DUP1 PUSH1 0x0 SLOAD DUP2 MSTORE PUSH1 0x20 ADD DUP7 DUP7 DUP1 DUP1 PUSH1 0x1F ADD PUSH1 0x20 DUP1 SWAP2 DIV MUL PUSH1 0x20 ADD PUSH1 0x40 MLOAD SWAP1 DUP2 ADD PUSH1 0x40 MSTORE DUP1 SWAP4 SWAP3 SWAP2 SWAP1 DUP2 DUP2 MSTORE PUSH1 0x20 ADD DUP4 DUP4 DUP1 DUP3 DUP5 CALLDATACOPY PUSH1 0x0 DUP2 DUP5 ADD MSTORE PUSH1 0x1F NOT PUSH1 0x1F DUP3 ADD AND SWAP1 POP DUP1 DUP4 ADD SWAP3 POP POP POP POP POP POP POP DUP2 MSTORE PUSH1 0x20 ADD DUP5 DUP5 DUP1 DUP1 PUSH1 0x1F ADD PUSH1 0x20 DUP1 SWAP2 DIV MUL PUSH1 0x20 ADD PUSH1 0x40 MLOAD SWAP1 DUP2 ADD PUSH1 0x40 MSTORE DUP1 SWAP4 SWAP3 SWAP2 SWAP1 DUP2 DUP2 MSTORE PUSH1 0x20 ADD DUP4 DUP4 DUP1 DUP3 DUP5 CALLDATACOPY PUSH1 0x0 DUP2 DUP5 ADD MSTORE PUSH1 0x1F NOT PUSH1 0x1F DUP3 ADD AND SWAP1 POP DUP1 DUP4 ADD SWAP3 POP POP POP POP POP POP POP DUP2 MSTORE PUSH1 0x20 ADD DUP3 DUP2 MSTORE PUSH1 0x20 ADD PUSH1 0x0 ISZERO ISZERO DUP2 MSTORE POP PUSH1 0x1 PUSH1 0x0 DUP1 SLOAD DUP2 MSTORE PUSH1 0x20 ADD SWAP1 DUP2 MSTORE PUSH1 0x20 ADD PUSH1 0x0 KECCAK256 PUSH1 0x0 DUP3 ADD MLOAD DUP2 PUSH1 0x0 ADD SSTORE PUSH1 0x20 DUP3 ADD MLOAD DUP2 PUSH1 0x1 ADD SWAP1 DUP2 PUSH2 0x57B SWAP2 SWAP1 PUSH2 0xEFB JUMP JUMPDEST POP PUSH1 0x40 DUP3 ADD MLOAD DUP2 PUSH1 0x2 ADD SWAP1 DUP2 PUSH2 0x591 SWAP2 SWAP1 PUSH2 0xEFB JUMP JUMPDEST POP PUSH1 0x60 DUP3 ADD MLOAD DUP2 PUSH1 0x3 ADD SSTORE PUSH1 0x80 DUP3 ADD MLOAD DUP2 PUSH1 0x4 ADD PUSH1 0x0 PUSH2 0x100 EXP DUP2 SLOAD DUP2 PUSH1 0xFF MUL NOT AND SWAP1 DUP4 ISZERO ISZERO MUL OR SWAP1 SSTORE POP SWAP1 POP POP PUSH1 0x0 SLOAD PUSH32 0x94B062FB0D134E6F12CDA4C62E9AAC9E2DA3E5CE4D9AC4D7F6CA761CD7B8801A DUP7 DUP7 DUP7 DUP7 DUP7 PUSH1 0x40 MLOAD PUSH2 0x5F9 SWAP6 SWAP5 SWAP4 SWAP3 SWAP2 SWAP1 PUSH2 0x1029 JUMP JUMPDEST PUSH1 0x40 MLOAD DUP1 SWAP2 SUB SWAP1 LOG2 PUSH1 0x0 DUP1 DUP2 SLOAD DUP1 SWAP3 SWAP2 SWAP1 PUSH2 0x613 SWAP1 PUSH2 0xD07 JUMP JUMPDEST SWAP2 SWAP1 POP SSTORE POP POP POP POP POP POP JUMP JUMPDEST PUSH1 0x1 PUSH1 0x0 DUP3 DUP2 MSTORE PUSH1 0x20 ADD SWAP1 DUP2 MSTORE PUSH1 0x20 ADD PUSH1 0x0 KECCAK256 PUSH1 0x0 DUP1 DUP3 ADD PUSH1 0x0 SWAP1 SSTORE PUSH1 0x1 DUP3 ADD PUSH1 0x0 PUSH2 0x64B SWAP2 SWAP1 PUSH2 0x79C JUMP JUMPDEST PUSH1 0x2 DUP3 ADD PUSH1 0x0 PUSH2 0x65B SWAP2 SWAP1 PUSH2 0x79C JUMP JUMPDEST PUSH1 0x3 DUP3 ADD PUSH1 0x0 SWAP1 SSTORE PUSH1 0x4 DUP3 ADD PUSH1 0x0 PUSH2 0x100 EXP DUP2 SLOAD SWAP1 PUSH1 0xFF MUL NOT AND SWAP1 SSTORE POP POP DUP1 PUSH32 0xD078B251D950CC55C44340BE1DB732337EF4939A76E1367EE271AD2CB19C46AF PUSH1 0x40 MLOAD PUSH1 0x40 MLOAD DUP1 SWAP2 SUB SWAP1 LOG2 POP JUMP JUMPDEST PUSH1 0x1 PUSH1 0x0 DUP3 DUP2 MSTORE PUSH1 0x20 ADD SWAP1 DUP2 MSTORE PUSH1 0x20 ADD PUSH1 0x0 KECCAK256 PUSH1 0x4 ADD PUSH1 0x0 SWAP1 SLOAD SWAP1 PUSH2 0x100 EXP SWAP1 DIV PUSH1 0xFF AND ISZERO PUSH2 0x70D JUMPI PUSH1 0x40 MLOAD PUSH32 0x8C379A000000000000000000000000000000000000000000000000000000000 DUP2 MSTORE PUSH1 0x4 ADD PUSH2 0x704 SWAP1 PUSH2 0x10BE JUMP JUMPDEST PUSH1 0x40 MLOAD DUP1 SWAP2 SUB SWAP1 REVERT JUMPDEST PUSH1 0x1 DUP1 PUSH1 0x0 DUP4 DUP2 MSTORE PUSH1 0x20 ADD SWAP1 DUP2 MSTORE PUSH1 0x20 ADD PUSH1 0x0 KECCAK256 PUSH1 0x4 ADD PUSH1 0x0 PUSH2 0x100 EXP DUP2 SLOAD DUP2 PUSH1 0xFF MUL NOT AND SWAP1 DUP4 ISZERO ISZERO MUL OR SWAP1 SSTORE POP DUP1 PUSH32 0xC1FA7142CFB933D0855114A3BFFDE296944C30B727F297C14D0DB4D553D3A5C7 PUSH1 0x40 MLOAD PUSH1 0x40 MLOAD DUP1 SWAP2 SUB SWAP1 LOG2 POP JUMP JUMPDEST PUSH1 0x40 MLOAD DUP1 PUSH1 0xA0 ADD PUSH1 0x40 MSTORE DUP1 PUSH1 0x0 DUP2 MSTORE PUSH1 0x20 ADD PUSH1 0x60 DUP2 MSTORE PUSH1 0x20 ADD PUSH1 0x60 DUP2 MSTORE PUSH1 0x20 ADD PUSH1 0x0 DUP2 MSTORE PUSH1 0x20 ADD PUSH1 0x0 ISZERO ISZERO DUP2 MSTORE POP SWAP1 JUMP JUMPDEST POP DUP1 SLOAD PUSH2 0x7A8 SWAP1 PUSH2 0xC78 JUMP JUMPDEST PUSH1 0x0 DUP3 SSTORE DUP1 PUSH1 0x1F LT PUSH2 0x7BA JUMPI POP PUSH2 0x7D9 JUMP JUMPDEST PUSH1 0x1F ADD PUSH1 0x20 SWAP1 DIV SWAP1 PUSH1 0x0 MSTORE PUSH1 0x20 PUSH1 0x0 KECCAK256 SWAP1 DUP2 ADD SWAP1 PUSH2 0x7D8 SWAP2 SWAP1 PUSH2 0x7DC JUMP JUMPDEST JUMPDEST POP JUMP JUMPDEST JUMPDEST DUP1 DUP3 GT ISZERO PUSH2 0x7F5 JUMPI PUSH1 0x0 DUP2 PUSH1 0x0 SWAP1 SSTORE POP PUSH1 0x1 ADD PUSH2 0x7DD JUMP JUMPDEST POP SWAP1 JUMP JUMPDEST PUSH1 0x0 DUP2 MLOAD SWAP1 POP SWAP2 SWAP1 POP JUMP JUMPDEST PUSH1 0x0 DUP3 DUP3 MSTORE PUSH1 0x20 DUP3 ADD SWAP1 POP SWAP3 SWAP2 POP POP JUMP JUMPDEST PUSH1 0x0 DUP2 SWAP1 POP PUSH1 0x20 DUP3 ADD SWAP1 POP SWAP2 SWAP1 POP JUMP JUMPDEST PUSH1 0x0 DUP2 SWAP1 POP SWAP2 SWAP1 POP JUMP JUMPDEST PUSH2 0x838 DUP2 PUSH2 0x825 JUMP JUMPDEST DUP3 MSTORE POP POP JUMP JUMPDEST PUSH1 0x0 DUP2 MLOAD SWAP1 POP SWAP2 SWAP1 POP JUMP JUMPDEST PUSH1 0x0 DUP3 DUP3 MSTORE PUSH1 0x20 DUP3 ADD SWAP1 POP SWAP3 SWAP2 POP POP JUMP JUMPDEST PUSH1 0x0 JUMPDEST DUP4 DUP2 LT ISZERO PUSH2 0x878 JUMPI DUP1 DUP3 ADD MLOAD DUP2 DUP5 ADD MSTORE PUSH1 0x20 DUP2 ADD SWAP1 POP PUSH2 0x85D JUMP JUMPDEST PUSH1 0x0 DUP5 DUP5 ADD MSTORE POP POP POP POP JUMP JUMPDEST PUSH1 0x0 PUSH1 0x1F NOT PUSH1 0x1F DUP4 ADD AND SWAP1 POP SWAP2 SWAP1 POP JUMP JUMPDEST PUSH1 0x0 PUSH2 0x8A0 DUP3 PUSH2 0x83E JUMP JUMPDEST PUSH2 0x8AA DUP2 DUP6 PUSH2 0x849 JUMP JUMPDEST SWAP4 POP PUSH2 0x8BA DUP2 DUP6 PUSH1 0x20 DUP7 ADD PUSH2 0x85A JUMP JUMPDEST PUSH2 0x8C3 DUP2 PUSH2 0x884 JUMP JUMPDEST DUP5 ADD SWAP2 POP POP SWAP3 SWAP2 POP POP JUMP JUMPDEST PUSH1 0x0 DUP2 ISZERO ISZERO SWAP1 POP SWAP2 SWAP1 POP JUMP JUMPDEST PUSH2 0x8E3 DUP2 PUSH2 0x8CE JUMP JUMPDEST DUP3 MSTORE POP POP JUMP JUMPDEST PUSH1 0x0 PUSH1 0xA0 DUP4 ADD PUSH1 0x0 DUP4 ADD MLOAD PUSH2 0x901 PUSH1 0x0 DUP7 ADD DUP3 PUSH2 0x82F JUMP JUMPDEST POP PUSH1 0x20 DUP4 ADD MLOAD DUP5 DUP3 SUB PUSH1 0x20 DUP7 ADD MSTORE PUSH2 0x919 DUP3 DUP3 PUSH2 0x895 JUMP JUMPDEST SWAP2 POP POP PUSH1 0x40 DUP4 ADD MLOAD DUP5 DUP3 SUB PUSH1 0x40 DUP7 ADD MSTORE PUSH2 0x933 DUP3 DUP3 PUSH2 0x895 JUMP JUMPDEST SWAP2 POP POP PUSH1 0x60 DUP4 ADD MLOAD PUSH2 0x948 PUSH1 0x60 DUP7 ADD DUP3 PUSH2 0x82F JUMP JUMPDEST POP PUSH1 0x80 DUP4 ADD MLOAD PUSH2 0x95B PUSH1 0x80 DUP7 ADD DUP3 PUSH2 0x8DA JUMP JUMPDEST POP DUP1 SWAP2 POP POP SWAP3 SWAP2 POP POP JUMP JUMPDEST PUSH1 0x0 PUSH2 0x972 DUP4 DUP4 PUSH2 0x8E9 JUMP JUMPDEST SWAP1 POP SWAP3 SWAP2 POP POP JUMP JUMPDEST PUSH1 0x0 PUSH1 0x20 DUP3 ADD SWAP1 POP SWAP2 SWAP1 POP JUMP JUMPDEST PUSH1 0x0 PUSH2 0x992 DUP3 PUSH2 0x7F9 JUMP JUMPDEST PUSH2 0x99C DUP2 DUP6 PUSH2 0x804 JUMP JUMPDEST SWAP4 POP DUP4 PUSH1 0x20 DUP3 MUL DUP6 ADD PUSH2 0x9AE DUP6 PUSH2 0x815 JUMP JUMPDEST DUP1 PUSH1 0x0 JUMPDEST DUP6 DUP2 LT ISZERO PUSH2 0x9EA JUMPI DUP5 DUP5 SUB DUP10 MSTORE DUP2 MLOAD PUSH2 0x9CB DUP6 DUP3 PUSH2 0x966 JUMP JUMPDEST SWAP5 POP PUSH2 0x9D6 DUP4 PUSH2 0x97A JUMP JUMPDEST SWAP3 POP PUSH1 0x20 DUP11 ADD SWAP10 POP POP PUSH1 0x1 DUP2 ADD SWAP1 POP PUSH2 0x9B2 JUMP JUMPDEST POP DUP3 SWAP8 POP DUP8 SWAP6 POP POP POP POP POP POP SWAP3 SWAP2 POP POP JUMP JUMPDEST PUSH1 0x0 PUSH1 0x20 DUP3 ADD SWAP1 POP DUP2 DUP2 SUB PUSH1 0x0 DUP4 ADD MSTORE PUSH2 0xA16 DUP2 DUP5 PUSH2 0x987 JUMP JUMPDEST SWAP1 POP SWAP3 SWAP2 POP POP JUMP JUMPDEST PUSH1 0x0 DUP1 REVERT JUMPDEST PUSH1 0x0 DUP1 REVERT JUMPDEST PUSH2 0xA31 DUP2 PUSH2 0x825 JUMP JUMPDEST DUP2 EQ PUSH2 0xA3C JUMPI PUSH1 0x0 DUP1 REVERT JUMPDEST POP JUMP JUMPDEST PUSH1 0x0 DUP2 CALLDATALOAD SWAP1 POP PUSH2 0xA4E DUP2 PUSH2 0xA28 JUMP JUMPDEST SWAP3 SWAP2 POP POP JUMP JUMPDEST PUSH1 0x0 PUSH1 0x20 DUP3 DUP5 SUB SLT ISZERO PUSH2 0xA6A JUMPI PUSH2 0xA69 PUSH2 0xA1E JUMP JUMPDEST JUMPDEST PUSH1 0x0 PUSH2 0xA78 DUP5 DUP3 DUP6 ADD PUSH2 0xA3F JUMP JUMPDEST SWAP2 POP POP SWAP3 SWAP2 POP POP JUMP JUMPDEST PUSH1 0x0 PUSH1 0xA0 DUP4 ADD PUSH1 0x0 DUP4 ADD MLOAD PUSH2 0xA99 PUSH1 0x0 DUP7 ADD DUP3 PUSH2 0x82F JUMP JUMPDEST POP PUSH1 0x20 DUP4 ADD MLOAD DUP5 DUP3 SUB PUSH1 0x20 DUP7 ADD MSTORE PUSH2 0xAB1 DUP3 DUP3 PUSH2 0x895 JUMP JUMPDEST SWAP2 POP POP PUSH1 0x40 DUP4 ADD MLOAD DUP5 DUP3 SUB PUSH1 0x40 DUP7 ADD MSTORE PUSH2 0xACB DUP3 DUP3 PUSH2 0x895 JUMP JUMPDEST SWAP2 POP POP PUSH1 0x60 DUP4 ADD MLOAD PUSH2 0xAE0 PUSH1 0x60 DUP7 ADD DUP3 PUSH2 0x82F JUMP JUMPDEST POP PUSH1 0x80 DUP4 ADD MLOAD PUSH2 0xAF3 PUSH1 0x80 DUP7 ADD DUP3 PUSH2 0x8DA JUMP JUMPDEST POP DUP1 SWAP2 POP POP SWAP3 SWAP2 POP POP JUMP JUMPDEST PUSH1 0x0 PUSH1 0x20 DUP3 ADD SWAP1 POP DUP2 DUP2 SUB PUSH1 0x0 DUP4 ADD MSTORE PUSH2 0xB18 DUP2 DUP5 PUSH2 0xA81 JUMP JUMPDEST SWAP1 POP SWAP3 SWAP2 POP POP JUMP JUMPDEST PUSH1 0x0 DUP1 REVERT JUMPDEST PUSH1 0x0 DUP1 REVERT JUMPDEST PUSH1 0x0 DUP1 REVERT JUMPDEST PUSH1 0x0 DUP1 DUP4 PUSH1 0x1F DUP5 ADD SLT PUSH2 0xB45 JUMPI PUSH2 0xB44 PUSH2 0xB20 JUMP JUMPDEST JUMPDEST DUP3 CALLDATALOAD SWAP1 POP PUSH8 0xFFFFFFFFFFFFFFFF DUP2 GT ISZERO PUSH2 0xB62 JUMPI PUSH2 0xB61 PUSH2 0xB25 JUMP JUMPDEST JUMPDEST PUSH1 0x20 DUP4 ADD SWAP2 POP DUP4 PUSH1 0x1 DUP3 MUL DUP4 ADD GT ISZERO PUSH2 0xB7E JUMPI PUSH2 0xB7D PUSH2 0xB2A JUMP JUMPDEST JUMPDEST SWAP3 POP SWAP3 SWAP1 POP JUMP JUMPDEST PUSH1 0x0 DUP1 PUSH1 0x0 DUP1 PUSH1 0x0 PUSH1 0x60 DUP7 DUP9 SUB SLT ISZERO PUSH2 0xBA1 JUMPI PUSH2 0xBA0 PUSH2 0xA1E JUMP JUMPDEST JUMPDEST PUSH1 0x0 DUP7 ADD CALLDATALOAD PUSH8 0xFFFFFFFFFFFFFFFF DUP2 GT ISZERO PUSH2 0xBBF JUMPI PUSH2 0xBBE PUSH2 0xA23 JUMP JUMPDEST JUMPDEST PUSH2 0xBCB DUP9 DUP3 DUP10 ADD PUSH2 0xB2F JUMP JUMPDEST SWAP6 POP SWAP6 POP POP PUSH1 0x20 DUP7 ADD CALLDATALOAD PUSH8 0xFFFFFFFFFFFFFFFF DUP2 GT ISZERO PUSH2 0xBEE JUMPI PUSH2 0xBED PUSH2 0xA23 JUMP JUMPDEST JUMPDEST PUSH2 0xBFA DUP9 DUP3 DUP10 ADD PUSH2 0xB2F JUMP JUMPDEST SWAP4 POP SWAP4 POP POP PUSH1 0x40 PUSH2 0xC0D DUP9 DUP3 DUP10 ADD PUSH2 0xA3F JUMP JUMPDEST SWAP2 POP POP SWAP3 SWAP6 POP SWAP3 SWAP6 SWAP1 SWAP4 POP JUMP JUMPDEST PUSH32 0x4E487B7100000000000000000000000000000000000000000000000000000000 PUSH1 0x0 MSTORE PUSH1 0x41 PUSH1 0x4 MSTORE PUSH1 0x24 PUSH1 0x0 REVERT JUMPDEST PUSH32 0x4E487B7100000000000000000000000000000000000000000000000000000000 PUSH1 0x0 MSTORE PUSH1 0x22 PUSH1 0x4 MSTORE PUSH1 0x24 PUSH1 0x0 REVERT JUMPDEST PUSH1 0x0 PUSH1 0x2 DUP3 DIV SWAP1 POP PUSH1 0x1 DUP3 AND DUP1 PUSH2 0xC90 JUMPI PUSH1 0x7F DUP3 AND SWAP2 POP JUMPDEST PUSH1 0x20 DUP3 LT DUP2 SUB PUSH2 0xCA3 JUMPI PUSH2 0xCA2 PUSH2 0xC49 JUMP JUMPDEST JUMPDEST POP SWAP2 SWAP1 POP JUMP JUMPDEST PUSH32 0x4E487B7100000000000000000000000000000000000000000000000000000000 PUSH1 0x0 MSTORE PUSH1 0x32 PUSH1 0x4 MSTORE PUSH1 0x24 PUSH1 0x0 REVERT JUMPDEST PUSH32 0x4E487B7100000000000000000000000000000000000000000000000000000000 PUSH1 0x0 MSTORE PUSH1 0x11 PUSH1 0x4 MSTORE PUSH1 0x24 PUSH1 0x0 REVERT JUMPDEST PUSH1 0x0 PUSH2 0xD12 DUP3 PUSH2 0x825 JUMP JUMPDEST SWAP2 POP PUSH32 0xFFFFFFFFFFFFFFFFFFFFFFFFFFFFFFFFFFFFFFFFFFFFFFFFFFFFFFFFFFFFFFFF DUP3 SUB PUSH2 0xD44 JUMPI PUSH2 0xD43 PUSH2 0xCD8 JUMP JUMPDEST JUMPDEST PUSH1 0x1 DUP3 ADD SWAP1 POP SWAP2 SWAP1 POP JUMP JUMPDEST PUSH1 0x0 DUP2 SWAP1 POP DUP2 PUSH1 0x0 MSTORE PUSH1 0x20 PUSH1 0x0 KECCAK256 SWAP1 POP SWAP2 SWAP1 POP JUMP JUMPDEST PUSH1 0x0 PUSH1 0x20 PUSH1 0x1F DUP4 ADD DIV SWAP1 POP SWAP2 SWAP1 POP JUMP JUMPDEST PUSH1 0x0 DUP3 DUP3 SHL SWAP1 POP SWAP3 SWAP2 POP POP JUMP JUMPDEST PUSH1 0x0 PUSH1 0x8 DUP4 MUL PUSH2 0xDB1 PUSH32 0xFFFFFFFFFFFFFFFFFFFFFFFFFFFFFFFFFFFFFFFFFFFFFFFFFFFFFFFFFFFFFFFF DUP3 PUSH2 0xD74 JUMP JUMPDEST PUSH2 0xDBB DUP7 DUP4 PUSH2 0xD74 JUMP JUMPDEST SWAP6 POP DUP1 NOT DUP5 AND SWAP4 POP DUP1 DUP7 AND DUP5 OR SWAP3 POP POP POP SWAP4 SWAP3 POP POP POP JUMP JUMPDEST PUSH1 0x0 DUP2 SWAP1 POP SWAP2 SWAP1 POP JUMP JUMPDEST PUSH1 0x0 PUSH2 0xDF8 PUSH2 0xDF3 PUSH2 0xDEE DUP5 PUSH2 0x825 JUMP JUMPDEST PUSH2 0xDD3 JUMP JUMPDEST PUSH2 0x825 JUMP JUMPDEST SWAP1 POP SWAP2 SWAP1 POP JUMP JUMPDEST PUSH1 0x0 DUP2 SWAP1 POP SWAP2 SWAP1 POP JUMP JUMPDEST PUSH2 0xE12 DUP4 PUSH2 0xDDD JUMP JUMPDEST PUSH2 0xE26 PUSH2 0xE1E DUP3 PUSH2 0xDFF JUMP JUMPDEST DUP5 DUP5 SLOAD PUSH2 0xD81 JUMP JUMPDEST DUP3 SSTORE POP POP POP POP JUMP JUMPDEST PUSH1 0x0 SWAP1 JUMP JUMPDEST PUSH2 0xE3B PUSH2 0xE2E JUMP JUMPDEST PUSH2 0xE46 DUP2 DUP5 DUP5 PUSH2 0xE09 JUMP JUMPDEST POP POP POP JUMP JUMPDEST JUMPDEST DUP2 DUP2 LT ISZERO PUSH2 0xE6A JUMPI PUSH2 0xE5F PUSH1 0x0 DUP3 PUSH2 0xE33 JUMP JUMPDEST PUSH1 0x1 DUP2 ADD SWAP1 POP PUSH2 0xE4C JUMP JUMPDEST POP POP JUMP JUMPDEST PUSH1 0x1F DUP3 GT ISZERO PUSH2 0xEAF JUMPI PUSH2 0xE80 DUP2 PUSH2 0xD4F JUMP JUMPDEST PUSH2 0xE89 DUP5 PUSH2 0xD64 JUMP JUMPDEST DUP2 ADD PUSH1 0x20 DUP6 LT ISZERO PUSH2 0xE98 JUMPI DUP2 SWAP1 POP JUMPDEST PUSH2 0xEAC PUSH2 0xEA4 DUP6 PUSH2 0xD64 JUMP JUMPDEST DUP4 ADD DUP3 PUSH2 0xE4B JUMP JUMPDEST POP POP JUMPDEST POP POP POP JUMP JUMPDEST PUSH1 0x0 DUP3 DUP3 SHR SWAP1 POP SWAP3 SWAP2 POP POP JUMP JUMPDEST PUSH1 0x0 PUSH2 0xED2 PUSH1 0x0 NOT DUP5 PUSH1 0x8 MUL PUSH2 0xEB4 JUMP JUMPDEST NOT DUP1 DUP4 AND SWAP2 POP POP SWAP3 SWAP2 POP POP JUMP JUMPDEST PUSH1 0x0 PUSH2 0xEEB DUP4 DUP4 PUSH2 0xEC1 JUMP JUMPDEST SWAP2 POP DUP3 PUSH1 0x2 MUL DUP3 OR SWAP1 POP SWAP3 SWAP2 POP POP JUMP JUMPDEST PUSH2 0xF04 DUP3 PUSH2 0x83E JUMP JUMPDEST PUSH8 0xFFFFFFFFFFFFFFFF DUP2 GT ISZERO PUSH2 0xF1D JUMPI PUSH2 0xF1C PUSH2 0xC1A JUMP JUMPDEST JUMPDEST PUSH2 0xF27 DUP3 SLOAD PUSH2 0xC78 JUMP JUMPDEST PUSH2 0xF32 DUP3 DUP3 DUP6 PUSH2 0xE6E JUMP JUMPDEST PUSH1 0x0 PUSH1 0x20 SWAP1 POP PUSH1 0x1F DUP4 GT PUSH1 0x1 DUP2 EQ PUSH2 0xF65 JUMPI PUSH1 0x0 DUP5 ISZERO PUSH2 0xF53 JUMPI DUP3 DUP8 ADD MLOAD SWAP1 POP JUMPDEST PUSH2 0xF5D DUP6 DUP3 PUSH2 0xEDF JUMP JUMPDEST DUP7 SSTORE POP PUSH2 0xFC5 JUMP JUMPDEST PUSH1 0x1F NOT DUP5 AND PUSH2 0xF73 DUP7 PUSH2 0xD4F JUMP JUMPDEST PUSH1 0x0 JUMPDEST DUP3 DUP2 LT ISZERO PUSH2 0xF9B JUMPI DUP5 DUP10 ADD MLOAD DUP3 SSTORE PUSH1 0x1 DUP3 ADD SWAP2 POP PUSH1 0x20 DUP6 ADD SWAP5 POP PUSH1 0x20 DUP2 ADD SWAP1 POP PUSH2 0xF76 JUMP JUMPDEST DUP7 DUP4 LT ISZERO PUSH2 0xFB8 JUMPI DUP5 DUP10 ADD MLOAD PUSH2 0xFB4 PUSH1 0x1F DUP10 AND DUP3 PUSH2 0xEC1 JUMP JUMPDEST DUP4 SSTORE POP JUMPDEST PUSH1 0x1 PUSH1 0x2 DUP9 MUL ADD DUP9 SSTORE POP POP POP JUMPDEST POP POP POP POP POP POP JUMP JUMPDEST PUSH1 0x0 DUP3 DUP3 MSTORE PUSH1 0x20 DUP3 ADD SWAP1 POP SWAP3 SWAP2 POP POP JUMP JUMPDEST DUP3 DUP2 DUP4 CALLDATACOPY PUSH1 0x0 DUP4 DUP4 ADD MSTORE POP POP POP JUMP JUMPDEST PUSH1 0x0 PUSH2 0xFF9 DUP4 DUP6 PUSH2 0xFCD JUMP JUMPDEST SWAP4 POP PUSH2 0x1006 DUP4 DUP6 DUP5 PUSH2 0xFDE JUMP JUMPDEST PUSH2 0x100F DUP4 PUSH2 0x884 JUMP JUMPDEST DUP5 ADD SWAP1 POP SWAP4 SWAP3 POP POP POP JUMP JUMPDEST PUSH2 0x1023 DUP2 PUSH2 0x825 JUMP JUMPDEST DUP3 MSTORE POP POP JUMP JUMPDEST PUSH1 0x0 PUSH1 0x60 DUP3 ADD SWAP1 POP DUP2 DUP2 SUB PUSH1 0x0 DUP4 ADD MSTORE PUSH2 0x1044 DUP2 DUP8 DUP10 PUSH2 0xFED JUMP JUMPDEST SWAP1 POP DUP2 DUP2 SUB PUSH1 0x20 DUP4 ADD MSTORE PUSH2 0x1059 DUP2 DUP6 DUP8 PUSH2 0xFED JUMP JUMPDEST SWAP1 POP PUSH2 0x1068 PUSH1 0x40 DUP4 ADD DUP5 PUSH2 0x101A JUMP JUMPDEST SWAP7 SWAP6 POP POP POP POP POP POP JUMP JUMPDEST PUSH32 0x5461736B20697320616C726561647920636F6D706C6574656400000000000000 PUSH1 0x0 DUP3 ADD MSTORE POP JUMP JUMPDEST PUSH1 0x0 PUSH2 0x10A8 PUSH1 0x19 DUP4 PUSH2 0xFCD JUMP JUMPDEST SWAP2 POP PUSH2 0x10B3 DUP3 PUSH2 0x1072 JUMP JUMPDEST PUSH1 0x20 DUP3 ADD SWAP1 POP SWAP2 SWAP1 POP JUMP JUMPDEST PUSH1 0x0 PUSH1 0x20 DUP3 ADD SWAP1 POP DUP2 DUP2 SUB PUSH1 0x0 DUP4 ADD MSTORE PUSH2 0x10D7 DUP2 PUSH2 0x109B JUMP JUMPDEST SWAP1 POP SWAP2 SWAP1 POP JUMP INVALID LOG2 PUSH5 0x6970667358 0x22 SLT KECCAK256 0xEE 0xC6 SWAP3 0xEF 0x28 PUSH15 0x1E4B3749620B6ED2CB808AC36F8FA4 0xAE SDIV 0xAE 0x4A PUSH18 0x74ADACDDDCFF64736F6C6343000812003300 "},"methodIdentifiers":{"completeTask(uint256)":"e1e29558","createTask(string,string,uint256)":"41a4e30a","deleteTask(uint256)":"560f3192","getTask(uint256)":"1d65e77e","getTasks()":"04a87e38"}}}}}