{
  "_format": "hh-sol-artifact-1",
  "contractName": "BrettTasks",
  "sourceName": "contracts/BrettTasks.sol",
  "abi": [
    {
      "anonymous": false,
      "inputs": [
        {
          "indexed": true,
          "internalType": "uint256",
          "name": "id",
          "type": "uint256"
        }
      ],
      "name": "TaskCompleted",
      "type": "event"
    },
    {
      "anonymous": false,
      "inputs": [
        {
          "indexed": true,
          "internalType": "uint256",
          "name": "id",
          "type": "uint256"
        },
        {
          "indexed": false,
          "internalType": "string",
          "name": "name",
          "type": "string"
        },
        {
          "indexed": false,
          "internalType": "string",
          "name": "description",
          "type": "string"
        },
        {
          "indexed": false,
          "internalType": "uint256",
          "name": "dueDate",
          "type": "uint256"
        }
      ],
      "name": "TaskCreated",
      "type": "event"
    },
    {
      "anonymous": false,
      "inputs": [
        {
          "indexed": true,
          "internalType": "uint256",
          "name": "id",
          "type": "uint256"
        }
      ],
      "name": "TaskDeleted",
      "type": "event"
    },
    {
      "inputs": [
        {
          "internalType": "uint256",
          "name": "id",
          "type": "uint256"
        }
      ],
      "name": "completeTask",
      "outputs": [],
      "stateMutability": "nonpayable",
      "type": "function"
    },
    {
      "inputs": [
        {
          "internalType": "string",
          "name": "name",
          "type": "string"
        },
        {
          "internalType": "string",
          "name": "description",
          "type": "string"
        },
        {
          "internalType": "uint256",
          "name": "dueDate",
          "type": "uint256"
        }
      ],
      "name": "createTask",
      "outputs": [],
      "stateMutability": "nonpayable",
      "type": "function"
    },
    {
      "inputs": [
        {
          "internalType": "uint256",
          "name": "id",
          "type": "uint256"
        }
      ],
      "name": "deleteTask",
      "outputs": [],
      "stateMutability": "nonpayable",
      "type": "function"
    },
    {
      "inputs": [
        {
          "internalType": "uint256",
          "name": "id",
          "type": "uint256"
        }
      ],
      "name": "getTask",
      "outputs": [
        {
          "components": [
            {
              "internalType": "uint256",
              "name": "id",
              "type": "uint256"
            },
            {
              "internalType": "string",
              "name": "name",
              "type": "string"
            },
            {
              "internalType": "string",
              "name": "description",
              "type": "string"
            },
            {
              "internalType": "uint256",
              "name": "dueDate",
              "type": "uint256"
            },
            {
              "internalType": "bool",
              "name": "completed",
              "type": "bool"
            }
          ],
          "internalType": "struct BrettTasks.Task",
          "name": "",
          "type": "tuple"
        }
      ],
      "stateMutability": "view",
      "type": "function"
    },
    {
      "inputs": [],
      "name": "getTasks",
      "outputs": [
        {
          "components": [
            {
              "internalType": "uint256",
              "name": "id",
              "type": "uint256"
            },
            {
              "internalType": "string",
              "name": "name",
              "type": "string"
            },
            {
              "internalType": "string",
              "name": "description",
              "type": "string"
            },
            {
              "internalType": "uint256",
              "name": "dueDate",
              "type": "uint256"
            },
            {
              "internalType": "bool",
              "name": "completed",
              "type": "bool"
            }
          ],
          "internalType": "struct BrettTasks.Task[]",
          "name": "",
          "type": "tuple[]"
        }
      ],
      "stateMutability": "view",
      "type": "function"
    }
  ],
  "bytecode": "0x608060405234801561001057600080fd5b50611390806100206000396000f3fe608060405234801561001057600080fd5b50600436106100575760003560e01c806304a87e381461005c5780631d65e77e1461007a57806341a4e30a146100aa578063560f3192146100c6578063e1e29558146100e2575b600080fd5b6100646100fe565b6040516100719190610ba3565b60405180910390f35b610094600480360381019061008f9190610bfb565b610393565b6040516100a19190610ca5565b60405180910390f35b6100c460048036038101906100bf9190610d2c565b610513565b005b6100e060048036038101906100db9190610bfb565b61069e565b005b6100fc60048036038101906100f79190610bfb565b61078b565b005b60606000805490506101456040518060400160405280600d81526020017f7461736b436f756e743a202573000000000000000000000000000000000000008152508261084d565b60008167ffffffffffffffff81111561016157610160610dc1565b5b60405190808252806020026020018201604052801561019a57816020015b610187610912565b81526020019060019003908161017f5790505b50905060005b8281101561034a57600160008281526020019081526020016000206040518060a0016040529081600082015481526020016001820180546101e090610e1f565b80601f016020809104026020016040519081016040528092919081815260200182805461020c90610e1f565b80156102595780601f1061022e57610100808354040283529160200191610259565b820191906000526020600020905b81548152906001019060200180831161023c57829003601f168201915b5050505050815260200160028201805461027290610e1f565b80601f016020809104026020016040519081016040528092919081815260200182805461029e90610e1f565b80156102eb5780601f106102c0576101008083540402835291602001916102eb565b820191906000526020600020905b8154815290600101906020018083116102ce57829003601f168201915b50505050508152602001600382015481526020016004820160009054906101000a900460ff16151515158152505082828151811061032c5761032b610e50565b5b6020026020010181905250808061034290610eae565b9150506101a0565b5061038b6040518060400160405280601381526020017f7461736b4c697374206c656e6774683a20257300000000000000000000000000815250825161084d565b809250505090565b61039b610912565b600160008381526020019081526020016000206040518060a0016040529081600082015481526020016001820180546103d390610e1f565b80601f01602080910402602001604051908101604052809291908181526020018280546103ff90610e1f565b801561044c5780601f106104215761010080835404028352916020019161044c565b820191906000526020600020905b81548152906001019060200180831161042f57829003601f168201915b5050505050815260200160028201805461046590610e1f565b80601f016020809104026020016040519081016040528092919081815260200182805461049190610e1f565b80156104de5780601f106104b3576101008083540402835291602001916104de565b820191906000526020600020905b8154815290600101906020018083116104c157829003601f168201915b50505050508152602001600382015481526020016004820160009054906101000a900460ff1615151515815250509050919050565b6040518060a00160405280600054815260200186868080601f016020809104026020016040519081016040528093929190818152602001838380828437600081840152601f19601f82011690508083019250505050505050815260200184848080601f016020809104026020016040519081016040528093929190818152602001838380828437600081840152601f19601f8201169050808301925050505050505081526020018281526020016000151581525060016000805481526020019081526020016000206000820151816000015560208201518160010190816105fa91906110a2565b50604082015181600201908161061091906110a2565b506060820151816003015560808201518160040160006101000a81548160ff0219169083151502179055509050506000547f94b062fb0d134e6f12cda4c62e9aac9e2da3e5ce4d9ac4d7f6ca761cd7b8801a86868686866040516106789594939291906111d0565b60405180910390a260008081548092919061069290610eae565b91905055505050505050565b6001600082815260200190815260200160002060040160009054906101000a900460ff16610701576040517f08c379a00000000000000000000000000000000000000000000000000000000081526004016106f890611265565b60405180910390fd5b6001600082815260200190815260200160002060008082016000905560018201600061072d9190610943565b60028201600061073d9190610943565b60038201600090556004820160006101000a81549060ff02191690555050807fd078b251d950cc55c44340be1db732337ef4939a76e1367ee271ad2cb19c46af60405160405180910390a250565b6001600082815260200190815260200160002060040160009054906101000a900460ff16156107ef576040517f08c379a00000000000000000000000000000000000000000000000000000000081526004016107e6906112d1565b60405180910390fd5b600180600083815260200190815260200160002060040160006101000a81548160ff021916908315150217905550807fc1fa7142cfb933d0855114a3bffde296944c30b727f297c14d0db4d553d3a5c760405160405180910390a250565b6108e5828260405160240161086392919061132a565b6040516020818303038152906040527fb60e72cc000000000000000000000000000000000000000000000000000000007bffffffffffffffffffffffffffffffffffffffffffffffffffffffff19166020820180517bffffffffffffffffffffffffffffffffffffffffffffffffffffffff83818316178352505050506108e9565b5050565b60008151905060006a636f6e736f6c652e6c6f679050602083016000808483855afa5050505050565b6040518060a00160405280600081526020016060815260200160608152602001600081526020016000151581525090565b50805461094f90610e1f565b6000825580601f106109615750610980565b601f01602090049060005260206000209081019061097f9190610983565b5b50565b5b8082111561099c576000816000905550600101610984565b5090565b600081519050919050565b600082825260208201905092915050565b6000819050602082019050919050565b6000819050919050565b6109df816109cc565b82525050565b600081519050919050565b600082825260208201905092915050565b60005b83811015610a1f578082015181840152602081019050610a04565b60008484015250505050565b6000601f19601f8301169050919050565b6000610a47826109e5565b610a5181856109f0565b9350610a61818560208601610a01565b610a6a81610a2b565b840191505092915050565b60008115159050919050565b610a8a81610a75565b82525050565b600060a083016000830151610aa860008601826109d6565b5060208301518482036020860152610ac08282610a3c565b91505060408301518482036040860152610ada8282610a3c565b9150506060830151610aef60608601826109d6565b506080830151610b026080860182610a81565b508091505092915050565b6000610b198383610a90565b905092915050565b6000602082019050919050565b6000610b39826109a0565b610b4381856109ab565b935083602082028501610b55856109bc565b8060005b85811015610b915784840389528151610b728582610b0d565b9450610b7d83610b21565b925060208a01995050600181019050610b59565b50829750879550505050505092915050565b60006020820190508181036000830152610bbd8184610b2e565b905092915050565b600080fd5b600080fd5b610bd8816109cc565b8114610be357600080fd5b50565b600081359050610bf581610bcf565b92915050565b600060208284031215610c1157610c10610bc5565b5b6000610c1f84828501610be6565b91505092915050565b600060a083016000830151610c4060008601826109d6565b5060208301518482036020860152610c588282610a3c565b91505060408301518482036040860152610c728282610a3c565b9150506060830151610c8760608601826109d6565b506080830151610c9a6080860182610a81565b508091505092915050565b60006020820190508181036000830152610cbf8184610c28565b905092915050565b600080fd5b600080fd5b600080fd5b60008083601f840112610cec57610ceb610cc7565b5b8235905067ffffffffffffffff811115610d0957610d08610ccc565b5b602083019150836001820283011115610d2557610d24610cd1565b5b9250929050565b600080600080600060608688031215610d4857610d47610bc5565b5b600086013567ffffffffffffffff811115610d6657610d65610bca565b5b610d7288828901610cd6565b9550955050602086013567ffffffffffffffff811115610d9557610d94610bca565b5b610da188828901610cd6565b93509350506040610db488828901610be6565b9150509295509295909350565b7f4e487b7100000000000000000000000000000000000000000000000000000000600052604160045260246000fd5b7f4e487b7100000000000000000000000000000000000000000000000000000000600052602260045260246000fd5b60006002820490506001821680610e3757607f821691505b602082108103610e4a57610e49610df0565b5b50919050565b7f4e487b7100000000000000000000000000000000000000000000000000000000600052603260045260246000fd5b7f4e487b7100000000000000000000000000000000000000000000000000000000600052601160045260246000fd5b6000610eb9826109cc565b91507fffffffffffffffffffffffffffffffffffffffffffffffffffffffffffffffff8203610eeb57610eea610e7f565b5b600182019050919050565b60008190508160005260206000209050919050565b60006020601f8301049050919050565b600082821b905092915050565b600060088302610f587fffffffffffffffffffffffffffffffffffffffffffffffffffffffffffffffff82610f1b565b610f628683610f1b565b95508019841693508086168417925050509392505050565b6000819050919050565b6000610f9f610f9a610f95846109cc565b610f7a565b6109cc565b9050919050565b6000819050919050565b610fb983610f84565b610fcd610fc582610fa6565b848454610f28565b825550505050565b600090565b610fe2610fd5565b610fed818484610fb0565b505050565b5b8181101561101157611006600082610fda565b600181019050610ff3565b5050565b601f8211156110565761102781610ef6565b61103084610f0b565b8101602085101561103f578190505b61105361104b85610f0b565b830182610ff2565b50505b505050565b600082821c905092915050565b60006110796000198460080261105b565b1980831691505092915050565b60006110928383611068565b9150826002028217905092915050565b6110ab826109e5565b67ffffffffffffffff8111156110c4576110c3610dc1565b5b6110ce8254610e1f565b6110d9828285611015565b600060209050601f83116001811461110c57600084156110fa578287015190505b6111048582611086565b86555061116c565b601f19841661111a86610ef6565b60005b828110156111425784890151825560018201915060208501945060208101905061111d565b8683101561115f578489015161115b601f891682611068565b8355505b6001600288020188555050505b505050505050565b600082825260208201905092915050565b82818337600083830152505050565b60006111a08385611174565b93506111ad838584611185565b6111b683610a2b565b840190509392505050565b6111ca816109cc565b82525050565b600060608201905081810360008301526111eb818789611194565b90508181036020830152611200818587611194565b905061120f60408301846111c1565b9695505050505050565b7f43616e6e6f742064656c65746520616e20696e636f6d706c657465207461736b600082015250565b600061124f602083611174565b915061125a82611219565b602082019050919050565b6000602082019050818103600083015261127e81611242565b9050919050565b7f5461736b20697320616c726561647920636f6d706c6574656400000000000000600082015250565b60006112bb601983611174565b91506112c682611285565b602082019050919050565b600060208201905081810360008301526112ea816112ae565b9050919050565b60006112fc826109e5565b6113068185611174565b9350611316818560208601610a01565b61131f81610a2b565b840191505092915050565b6000604082019050818103600083015261134481856112f1565b905061135360208301846111c1565b939250505056fea2646970667358221220531b05efdb185b5231fd90151d0fa1da6cf591742049dce2ae49ca5ef4ecabd264736f6c63430008120033",
  "linkReferences": {},
  "deployedLinkReferences": {}
}