{
  "_format": "hh-sol-artifact-1",
  "contractName": "Tasks",
  "sourceName": "contracts/Tasks.sol",
  "abi": [
    {
      "anonymous": false,
      "inputs": [
        {
          "indexed": true,
          "internalType": "uint256",
          "name": "id",
          "type": "uint256"
        }
      ],
      "name": "TaskCompleted",
      "type": "event"
    },
    {
      "anonymous": false,
      "inputs": [
        {
          "indexed": true,
          "internalType": "uint256",
          "name": "id",
          "type": "uint256"
        },
        {
          "indexed": false,
          "internalType": "string",
          "name": "name",
          "type": "string"
        },
        {
          "indexed": false,
          "internalType": "string",
          "name": "description",
          "type": "string"
        },
        {
          "indexed": false,
          "internalType": "uint256",
          "name": "dueDate",
          "type": "uint256"
        }
      ],
      "name": "TaskCreated",
      "type": "event"
    },
    {
      "anonymous": false,
      "inputs": [
        {
          "indexed": true,
          "internalType": "uint256",
          "name": "id",
          "type": "uint256"
        }
      ],
      "name": "TaskDeleted",
      "type": "event"
    },
    {
      "inputs": [
        {
          "internalType": "uint256",
          "name": "id",
          "type": "uint256"
        }
      ],
      "name": "completeTask",
      "outputs": [],
      "stateMutability": "nonpayable",
      "type": "function"
    },
    {
      "inputs": [
        {
          "internalType": "string",
          "name": "name",
          "type": "string"
        },
        {
          "internalType": "string",
          "name": "description",
          "type": "string"
        },
        {
          "internalType": "uint256",
          "name": "dueDate",
          "type": "uint256"
        }
      ],
      "name": "createTask",
      "outputs": [],
      "stateMutability": "nonpayable",
      "type": "function"
    },
    {
      "inputs": [
        {
          "internalType": "uint256",
          "name": "id",
          "type": "uint256"
        }
      ],
      "name": "deleteTask",
      "outputs": [],
      "stateMutability": "nonpayable",
      "type": "function"
    },
    {
      "inputs": [
        {
          "internalType": "uint256",
          "name": "id",
          "type": "uint256"
        }
      ],
      "name": "getTask",
      "outputs": [
        {
          "components": [
            {
              "internalType": "uint256",
              "name": "id",
              "type": "uint256"
            },
            {
              "internalType": "string",
              "name": "name",
              "type": "string"
            },
            {
              "internalType": "string",
              "name": "description",
              "type": "string"
            },
            {
              "internalType": "uint256",
              "name": "dueDate",
              "type": "uint256"
            },
            {
              "internalType": "bool",
              "name": "completed",
              "type": "bool"
            }
          ],
          "internalType": "struct Tasks.Task",
          "name": "",
          "type": "tuple"
        }
      ],
      "stateMutability": "view",
      "type": "function"
    },
    {
      "inputs": [],
      "name": "getTasks",
      "outputs": [
        {
          "components": [
            {
              "internalType": "uint256",
              "name": "id",
              "type": "uint256"
            },
            {
              "internalType": "string",
              "name": "name",
              "type": "string"
            },
            {
              "internalType": "string",
              "name": "description",
              "type": "string"
            },
            {
              "internalType": "uint256",
              "name": "dueDate",
              "type": "uint256"
            },
            {
              "internalType": "bool",
              "name": "completed",
              "type": "bool"
            }
          ],
          "internalType": "struct Tasks.Task[]",
          "name": "",
          "type": "tuple[]"
        }
      ],
      "stateMutability": "view",
      "type": "function"
    }
  ],
  "bytecode": "0x608060405234801561001057600080fd5b50611114806100206000396000f3fe608060405234801561001057600080fd5b50600436106100575760003560e01c806304a87e381461005c5780631d65e77e1461007a57806341a4e30a146100aa578063560f3192146100c6578063e1e29558146100e2575b600080fd5b6100646100fe565b60405161007191906109fc565b60405180910390f35b610094600480360381019061008f9190610a54565b610314565b6040516100a19190610afe565b60405180910390f35b6100c460048036038101906100bf9190610b85565b610494565b005b6100e060048036038101906100db9190610a54565b61061f565b005b6100fc60048036038101906100f79190610a54565b6106a9565b005b606060008054905060008167ffffffffffffffff81111561012257610121610c1a565b5b60405190808252806020026020018201604052801561015b57816020015b61014861076b565b8152602001906001900390816101405790505b50905060005b8281101561030b57600160008281526020019081526020016000206040518060a0016040529081600082015481526020016001820180546101a190610c78565b80601f01602080910402602001604051908101604052809291908181526020018280546101cd90610c78565b801561021a5780601f106101ef5761010080835404028352916020019161021a565b820191906000526020600020905b8154815290600101906020018083116101fd57829003601f168201915b5050505050815260200160028201805461023390610c78565b80601f016020809104026020016040519081016040528092919081815260200182805461025f90610c78565b80156102ac5780601f10610281576101008083540402835291602001916102ac565b820191906000526020600020905b81548152906001019060200180831161028f57829003601f168201915b50505050508152602001600382015481526020016004820160009054906101000a900460ff1615151515815250508282815181106102ed576102ec610ca9565b5b6020026020010181905250808061030390610d07565b915050610161565b50809250505090565b61031c61076b565b600160008381526020019081526020016000206040518060a00160405290816000820154815260200160018201805461035490610c78565b80601f016020809104026020016040519081016040528092919081815260200182805461038090610c78565b80156103cd5780601f106103a2576101008083540402835291602001916103cd565b820191906000526020600020905b8154815290600101906020018083116103b057829003601f168201915b505050505081526020016002820180546103e690610c78565b80601f016020809104026020016040519081016040528092919081815260200182805461041290610c78565b801561045f5780601f106104345761010080835404028352916020019161045f565b820191906000526020600020905b81548152906001019060200180831161044257829003601f168201915b50505050508152602001600382015481526020016004820160009054906101000a900460ff1615151515815250509050919050565b6040518060a00160405280600054815260200186868080601f016020809104026020016040519081016040528093929190818152602001838380828437600081840152601f19601f82011690508083019250505050505050815260200184848080601f016020809104026020016040519081016040528093929190818152602001838380828437600081840152601f19601f82011690508083019250505050505050815260200182815260200160001515815250600160008054815260200190815260200160002060008201518160000155602082015181600101908161057b9190610efb565b5060408201518160020190816105919190610efb565b506060820151816003015560808201518160040160006101000a81548160ff0219169083151502179055509050506000547f94b062fb0d134e6f12cda4c62e9aac9e2da3e5ce4d9ac4d7f6ca761cd7b8801a86868686866040516105f9959493929190611029565b60405180910390a260008081548092919061061390610d07565b91905055505050505050565b6001600082815260200190815260200160002060008082016000905560018201600061064b919061079c565b60028201600061065b919061079c565b60038201600090556004820160006101000a81549060ff02191690555050807fd078b251d950cc55c44340be1db732337ef4939a76e1367ee271ad2cb19c46af60405160405180910390a250565b6001600082815260200190815260200160002060040160009054906101000a900460ff161561070d576040517f08c379a0000000000000000000000000000000000000000000000000000000008152600401610704906110be565b60405180910390fd5b600180600083815260200190815260200160002060040160006101000a81548160ff021916908315150217905550807fc1fa7142cfb933d0855114a3bffde296944c30b727f297c14d0db4d553d3a5c760405160405180910390a250565b6040518060a00160405280600081526020016060815260200160608152602001600081526020016000151581525090565b5080546107a890610c78565b6000825580601f106107ba57506107d9565b601f0160209004906000526020600020908101906107d891906107dc565b5b50565b5b808211156107f55760008160009055506001016107dd565b5090565b600081519050919050565b600082825260208201905092915050565b6000819050602082019050919050565b6000819050919050565b61083881610825565b82525050565b600081519050919050565b600082825260208201905092915050565b60005b8381101561087857808201518184015260208101905061085d565b60008484015250505050565b6000601f19601f8301169050919050565b60006108a08261083e565b6108aa8185610849565b93506108ba81856020860161085a565b6108c381610884565b840191505092915050565b60008115159050919050565b6108e3816108ce565b82525050565b600060a083016000830151610901600086018261082f565b50602083015184820360208601526109198282610895565b915050604083015184820360408601526109338282610895565b9150506060830151610948606086018261082f565b50608083015161095b60808601826108da565b508091505092915050565b600061097283836108e9565b905092915050565b6000602082019050919050565b6000610992826107f9565b61099c8185610804565b9350836020820285016109ae85610815565b8060005b858110156109ea57848403895281516109cb8582610966565b94506109d68361097a565b925060208a019950506001810190506109b2565b50829750879550505050505092915050565b60006020820190508181036000830152610a168184610987565b905092915050565b600080fd5b600080fd5b610a3181610825565b8114610a3c57600080fd5b50565b600081359050610a4e81610a28565b92915050565b600060208284031215610a6a57610a69610a1e565b5b6000610a7884828501610a3f565b91505092915050565b600060a083016000830151610a99600086018261082f565b5060208301518482036020860152610ab18282610895565b91505060408301518482036040860152610acb8282610895565b9150506060830151610ae0606086018261082f565b506080830151610af360808601826108da565b508091505092915050565b60006020820190508181036000830152610b188184610a81565b905092915050565b600080fd5b600080fd5b600080fd5b60008083601f840112610b4557610b44610b20565b5b8235905067ffffffffffffffff811115610b6257610b61610b25565b5b602083019150836001820283011115610b7e57610b7d610b2a565b5b9250929050565b600080600080600060608688031215610ba157610ba0610a1e565b5b600086013567ffffffffffffffff811115610bbf57610bbe610a23565b5b610bcb88828901610b2f565b9550955050602086013567ffffffffffffffff811115610bee57610bed610a23565b5b610bfa88828901610b2f565b93509350506040610c0d88828901610a3f565b9150509295509295909350565b7f4e487b7100000000000000000000000000000000000000000000000000000000600052604160045260246000fd5b7f4e487b7100000000000000000000000000000000000000000000000000000000600052602260045260246000fd5b60006002820490506001821680610c9057607f821691505b602082108103610ca357610ca2610c49565b5b50919050565b7f4e487b7100000000000000000000000000000000000000000000000000000000600052603260045260246000fd5b7f4e487b7100000000000000000000000000000000000000000000000000000000600052601160045260246000fd5b6000610d1282610825565b91507fffffffffffffffffffffffffffffffffffffffffffffffffffffffffffffffff8203610d4457610d43610cd8565b5b600182019050919050565b60008190508160005260206000209050919050565b60006020601f8301049050919050565b600082821b905092915050565b600060088302610db17fffffffffffffffffffffffffffffffffffffffffffffffffffffffffffffffff82610d74565b610dbb8683610d74565b95508019841693508086168417925050509392505050565b6000819050919050565b6000610df8610df3610dee84610825565b610dd3565b610825565b9050919050565b6000819050919050565b610e1283610ddd565b610e26610e1e82610dff565b848454610d81565b825550505050565b600090565b610e3b610e2e565b610e46818484610e09565b505050565b5b81811015610e6a57610e5f600082610e33565b600181019050610e4c565b5050565b601f821115610eaf57610e8081610d4f565b610e8984610d64565b81016020851015610e98578190505b610eac610ea485610d64565b830182610e4b565b50505b505050565b600082821c905092915050565b6000610ed260001984600802610eb4565b1980831691505092915050565b6000610eeb8383610ec1565b9150826002028217905092915050565b610f048261083e565b67ffffffffffffffff811115610f1d57610f1c610c1a565b5b610f278254610c78565b610f32828285610e6e565b600060209050601f831160018114610f655760008415610f53578287015190505b610f5d8582610edf565b865550610fc5565b601f198416610f7386610d4f565b60005b82811015610f9b57848901518255600182019150602085019450602081019050610f76565b86831015610fb85784890151610fb4601f891682610ec1565b8355505b6001600288020188555050505b505050505050565b600082825260208201905092915050565b82818337600083830152505050565b6000610ff98385610fcd565b9350611006838584610fde565b61100f83610884565b840190509392505050565b61102381610825565b82525050565b60006060820190508181036000830152611044818789610fed565b90508181036020830152611059818587610fed565b9050611068604083018461101a565b9695505050505050565b7f5461736b20697320616c726561647920636f6d706c6574656400000000000000600082015250565b60006110a8601983610fcd565b91506110b382611072565b602082019050919050565b600060208201905081810360008301526110d78161109b565b905091905056fea2646970667358221220eec692ef286e1e4b3749620b6ed2cb808ac36f8fa4ae05ae4a7174adacdddcff64736f6c63430008120033",
  "linkReferences": {},
  "deployedLinkReferences": {}
}